{
  "contractName": "myTokenERC20",
  "abi": [
    {
      "inputs": [
        {
          "internalType": "uint256",
          "name": "initialSupply",
          "type": "uint256"
        },
        {
          "internalType": "uint8",
          "name": "decimal",
          "type": "uint8"
        },
        {
          "internalType": "string",
          "name": "tokenName",
          "type": "string"
        },
        {
          "internalType": "string",
          "name": "tokenSymbol",
          "type": "string"
        }
      ],
      "stateMutability": "nonpayable",
      "type": "constructor"
    },
    {
      "anonymous": false,
      "inputs": [
        {
          "indexed": true,
          "internalType": "address",
          "name": "owner",
          "type": "address"
        },
        {
          "indexed": true,
          "internalType": "address",
          "name": "spender",
          "type": "address"
        },
        {
          "indexed": false,
          "internalType": "uint256",
          "name": "value",
          "type": "uint256"
        }
      ],
      "name": "Approval",
      "type": "event"
    },
    {
      "anonymous": false,
      "inputs": [
        {
          "indexed": true,
          "internalType": "address",
          "name": "from",
          "type": "address"
        },
        {
          "indexed": true,
          "internalType": "address",
          "name": "to",
          "type": "address"
        },
        {
          "indexed": false,
          "internalType": "uint256",
          "name": "value",
          "type": "uint256"
        }
      ],
      "name": "Transfer",
      "type": "event"
    },
    {
      "inputs": [],
      "name": "totalSupply",
      "outputs": [
        {
          "internalType": "uint256",
          "name": "",
          "type": "uint256"
        }
      ],
      "stateMutability": "view",
      "type": "function",
      "constant": true
    },
    {
      "inputs": [
        {
          "internalType": "address",
          "name": "tokenOwner",
          "type": "address"
        }
      ],
      "name": "balanceOf",
      "outputs": [
        {
          "internalType": "uint256",
          "name": "",
          "type": "uint256"
        }
      ],
      "stateMutability": "view",
      "type": "function",
      "constant": true
    },
    {
      "inputs": [
        {
          "internalType": "address",
          "name": "receiver",
          "type": "address"
        },
        {
          "internalType": "uint256",
          "name": "numTokens",
          "type": "uint256"
        }
      ],
      "name": "transfer",
      "outputs": [
        {
          "internalType": "bool",
          "name": "",
          "type": "bool"
        }
      ],
      "stateMutability": "nonpayable",
      "type": "function"
    },
    {
      "inputs": [
        {
          "internalType": "address",
          "name": "owner",
          "type": "address"
        },
        {
          "internalType": "address",
          "name": "delegate",
          "type": "address"
        }
      ],
      "name": "allowance",
      "outputs": [
        {
          "internalType": "uint256",
          "name": "",
          "type": "uint256"
        }
      ],
      "stateMutability": "view",
      "type": "function",
      "constant": true
    },
    {
      "inputs": [
        {
          "internalType": "address",
          "name": "delegate",
          "type": "address"
        },
        {
          "internalType": "uint256",
          "name": "numTokens",
          "type": "uint256"
        }
      ],
      "name": "approve",
      "outputs": [
        {
          "internalType": "bool",
          "name": "",
          "type": "bool"
        }
      ],
      "stateMutability": "nonpayable",
      "type": "function"
    },
    {
      "inputs": [
        {
          "internalType": "address",
          "name": "owner",
          "type": "address"
        },
        {
          "internalType": "address",
          "name": "buyer",
          "type": "address"
        },
        {
          "internalType": "uint256",
          "name": "numTokens",
          "type": "uint256"
        }
      ],
      "name": "transferFrom",
      "outputs": [
        {
          "internalType": "bool",
          "name": "",
          "type": "bool"
        }
      ],
      "stateMutability": "nonpayable",
      "type": "function"
    },
    {
      "inputs": [
        {
          "internalType": "uint256",
          "name": "numTokens",
          "type": "uint256"
        }
      ],
      "name": "mint",
      "outputs": [
        {
          "internalType": "bool",
          "name": "a",
          "type": "bool"
        }
      ],
      "stateMutability": "nonpayable",
      "type": "function"
    },
    {
      "inputs": [
        {
          "internalType": "address",
          "name": "receiver",
          "type": "address"
        },
        {
          "internalType": "uint256",
          "name": "numTokens",
          "type": "uint256"
        }
      ],
      "name": "transferTimeBoundToken",
      "outputs": [
        {
          "internalType": "bool",
          "name": "",
          "type": "bool"
        }
      ],
      "stateMutability": "nonpayable",
      "type": "function"
    }
  ],
  "bytecode": "0x6080604052607860085560085442620000199190620003a0565b6009553480156200002957600080fd5b5060405162001ae638038062001ae683398181016040528101906200004f91906200029b565b82600a6200005e919062000458565b846200006b919062000595565b6000819055508160039080519060200190620000899291906200014b565b508060049080519060200190620000a29291906200014b565b5033600560006101000a81548173ffffffffffffffffffffffffffffffffffffffff021916908373ffffffffffffffffffffffffffffffffffffffff160217905550600054600660003373ffffffffffffffffffffffffffffffffffffffff1673ffffffffffffffffffffffffffffffffffffffff1681526020019081526020016000208190555060026000546200013b919062000595565b6001819055505050505062000747565b828054620001599062000643565b90600052602060002090601f0160209004810192826200017d5760008555620001c9565b82601f106200019857805160ff1916838001178555620001c9565b82800160010185558215620001c9579182015b82811115620001c8578251825591602001919060010190620001ab565b5b509050620001d89190620001dc565b5090565b5b80821115620001f7576000816000905550600101620001dd565b5090565b6000620002126200020c846200036d565b62000339565b9050828152602081018484840111156200022b57600080fd5b620002388482856200060d565b509392505050565b600082601f8301126200025257600080fd5b815162000264848260208601620001fb565b91505092915050565b6000815190506200027e8162000713565b92915050565b60008151905062000295816200072d565b92915050565b60008060008060808587031215620002b257600080fd5b6000620002c2878288016200026d565b9450506020620002d58782880162000284565b935050604085015167ffffffffffffffff811115620002f357600080fd5b620003018782880162000240565b925050606085015167ffffffffffffffff8111156200031f57600080fd5b6200032d8782880162000240565b91505092959194509250565b6000604051905081810181811067ffffffffffffffff82111715620003635762000362620006d7565b5b8060405250919050565b600067ffffffffffffffff8211156200038b576200038a620006d7565b5b601f19601f8301169050602081019050919050565b6000620003ad82620005f6565b9150620003ba83620005f6565b9250827fffffffffffffffffffffffffffffffffffffffffffffffffffffffffffffffff03821115620003f257620003f162000679565b5b828201905092915050565b6000808291508390505b60018511156200044f5780860481111562000427576200042662000679565b5b6001851615620004375780820291505b8081029050620004478562000706565b945062000407565b94509492505050565b60006200046582620005f6565b9150620004728362000600565b9250620004a17fffffffffffffffffffffffffffffffffffffffffffffffffffffffffffffffff8484620004a9565b905092915050565b600082620004bb57600190506200058e565b81620004cb57600090506200058e565b8160018114620004e45760028114620004ef5762000525565b60019150506200058e565b60ff84111562000504576200050362000679565b5b8360020a9150848211156200051e576200051d62000679565b5b506200058e565b5060208310610133831016604e8410600b84101617156200055f5782820a90508381111562000559576200055862000679565b5b6200058e565b6200056e8484846001620003fd565b9250905081840481111562000588576200058762000679565b5b81810290505b9392505050565b6000620005a282620005f6565b9150620005af83620005f6565b9250817fffffffffffffffffffffffffffffffffffffffffffffffffffffffffffffffff0483118215151615620005eb57620005ea62000679565b5b828202905092915050565b6000819050919050565b600060ff82169050919050565b60005b838110156200062d57808201518184015260208101905062000610565b838111156200063d576000848401525b50505050565b600060028204905060018216806200065c57607f821691505b60208210811415620006735762000672620006a8565b5b50919050565b7f4e487b7100000000000000000000000000000000000000000000000000000000600052601160045260246000fd5b7f4e487b7100000000000000000000000000000000000000000000000000000000600052602260045260246000fd5b7f4e487b7100000000000000000000000000000000000000000000000000000000600052604160045260246000fd5b60008160011c9050919050565b6200071e81620005f6565b81146200072a57600080fd5b50565b620007388162000600565b81146200074457600080fd5b50565b61138f80620007576000396000f3fe608060405234801561001057600080fd5b50600436106100885760003560e01c8063a0712d681161005b578063a0712d681461013b578063a9059cbb1461016b578063ade22ad81461019b578063dd62ed3e146101cb57610088565b8063095ea7b31461008d57806318160ddd146100bd57806323b872dd146100db57806370a082311461010b575b600080fd5b6100a760048036038101906100a29190610f0e565b6101fb565b6040516100b49190611143565b60405180910390f35b6100c56102ed565b6040516100d291906111fe565b60405180910390f35b6100f560048036038101906100f09190610ebf565b6102f6565b6040516101029190611143565b60405180910390f35b61012560048036038101906101209190610e5a565b61073d565b60405161013291906111fe565b60405180910390f35b61015560048036038101906101509190610f4a565b610786565b6040516101629190611143565b60405180910390f35b61018560048036038101906101809190610f0e565b610946565b6040516101929190611143565b60405180910390f35b6101b560048036038101906101b09190610f0e565b610b55565b6040516101c29190611143565b60405180910390f35b6101e560048036038101906101e09190610e83565b610da9565b6040516101f291906111fe565b60405180910390f35b600081600760003373ffffffffffffffffffffffffffffffffffffffff1673ffffffffffffffffffffffffffffffffffffffff16815260200190815260200160002060008573ffffffffffffffffffffffffffffffffffffffff1673ffffffffffffffffffffffffffffffffffffffff168152602001908152602001600020819055508273ffffffffffffffffffffffffffffffffffffffff163373ffffffffffffffffffffffffffffffffffffffff167f8c5be1e5ebec7d5bd14f71427d1e84f3dd0314c0f7b2291e5b200ac8c7c3b925846040516102db91906111fe565b60405180910390a36001905092915050565b60008054905090565b6000600660008573ffffffffffffffffffffffffffffffffffffffff1673ffffffffffffffffffffffffffffffffffffffff1681526020019081526020016000205482111561037a576040517f08c379a0000000000000000000000000000000000000000000000000000000008152600401610371906111be565b60405180910390fd5b600760008573ffffffffffffffffffffffffffffffffffffffff1673ffffffffffffffffffffffffffffffffffffffff16815260200190815260200160002060003373ffffffffffffffffffffffffffffffffffffffff1673ffffffffffffffffffffffffffffffffffffffff16815260200190815260200160002054821115610439576040517f08c379a00000000000000000000000000000000000000000000000000000000081526004016104309061115e565b60405180910390fd5b600073ffffffffffffffffffffffffffffffffffffffff168373ffffffffffffffffffffffffffffffffffffffff1614156104a9576040517f08c379a00000000000000000000000000000000000000000000000000000000081526004016104a09061119e565b60405180910390fd5b81600660008673ffffffffffffffffffffffffffffffffffffffff1673ffffffffffffffffffffffffffffffffffffffff168152602001908152602001600020546104f49190611280565b600660008673ffffffffffffffffffffffffffffffffffffffff1673ffffffffffffffffffffffffffffffffffffffff1681526020019081526020016000208190555081600760008673ffffffffffffffffffffffffffffffffffffffff1673ffffffffffffffffffffffffffffffffffffffff16815260200190815260200160002060003373ffffffffffffffffffffffffffffffffffffffff1673ffffffffffffffffffffffffffffffffffffffff168152602001908152602001600020546105bf9190611280565b600760008673ffffffffffffffffffffffffffffffffffffffff1673ffffffffffffffffffffffffffffffffffffffff16815260200190815260200160002060003373ffffffffffffffffffffffffffffffffffffffff1673ffffffffffffffffffffffffffffffffffffffff1681526020019081526020016000208190555081600660008573ffffffffffffffffffffffffffffffffffffffff1673ffffffffffffffffffffffffffffffffffffffff1681526020019081526020016000205461068a919061122a565b600660008573ffffffffffffffffffffffffffffffffffffffff1673ffffffffffffffffffffffffffffffffffffffff168152602001908152602001600020819055508273ffffffffffffffffffffffffffffffffffffffff168473ffffffffffffffffffffffffffffffffffffffff167fddf252ad1be2c89b69c2b068fc378daa952ba7f163c4a11628f55a4df523b3ef8460405161072a91906111fe565b60405180910390a3600190509392505050565b6000600660008373ffffffffffffffffffffffffffffffffffffffff1673ffffffffffffffffffffffffffffffffffffffff168152602001908152602001600020549050919050565b6000600560009054906101000a900473ffffffffffffffffffffffffffffffffffffffff1673ffffffffffffffffffffffffffffffffffffffff163373ffffffffffffffffffffffffffffffffffffffff16141561094157600073ffffffffffffffffffffffffffffffffffffffff163373ffffffffffffffffffffffffffffffffffffffff16141561081857600080fd5b60015482600054610829919061122a565b111561083457600080fd5b81600054610842919061122a565b60008190555081600660003373ffffffffffffffffffffffffffffffffffffffff1673ffffffffffffffffffffffffffffffffffffffff16815260200190815260200160002054610893919061122a565b600660003373ffffffffffffffffffffffffffffffffffffffff1673ffffffffffffffffffffffffffffffffffffffff168152602001908152602001600020819055503373ffffffffffffffffffffffffffffffffffffffff16600073ffffffffffffffffffffffffffffffffffffffff167fddf252ad1be2c89b69c2b068fc378daa952ba7f163c4a11628f55a4df523b3ef8460405161093491906111fe565b60405180910390a3600190505b919050565b6000600660003373ffffffffffffffffffffffffffffffffffffffff1673ffffffffffffffffffffffffffffffffffffffff168152602001908152602001600020548211156109ca576040517f08c379a00000000000000000000000000000000000000000000000000000000081526004016109c1906111de565b60405180910390fd5b81600660003373ffffffffffffffffffffffffffffffffffffffff1673ffffffffffffffffffffffffffffffffffffffff16815260200190815260200160002054610a159190611280565b600660003373ffffffffffffffffffffffffffffffffffffffff1673ffffffffffffffffffffffffffffffffffffffff1681526020019081526020016000208190555081600660008573ffffffffffffffffffffffffffffffffffffffff1673ffffffffffffffffffffffffffffffffffffffff16815260200190815260200160002054610aa3919061122a565b600660008573ffffffffffffffffffffffffffffffffffffffff1673ffffffffffffffffffffffffffffffffffffffff168152602001908152602001600020819055508273ffffffffffffffffffffffffffffffffffffffff163373ffffffffffffffffffffffffffffffffffffffff167fddf252ad1be2c89b69c2b068fc378daa952ba7f163c4a11628f55a4df523b3ef84604051610b4391906111fe565b60405180910390a36001905092915050565b6000600954421015610b9c576040517f08c379a0000000000000000000000000000000000000000000000000000000008152600401610b939061117e565b60405180910390fd5b600660003373ffffffffffffffffffffffffffffffffffffffff1673ffffffffffffffffffffffffffffffffffffffff16815260200190815260200160002054821115610c1e576040517f08c379a0000000000000000000000000000000000000000000000000000000008152600401610c15906111de565b60405180910390fd5b81600660003373ffffffffffffffffffffffffffffffffffffffff1673ffffffffffffffffffffffffffffffffffffffff16815260200190815260200160002054610c699190611280565b600660003373ffffffffffffffffffffffffffffffffffffffff1673ffffffffffffffffffffffffffffffffffffffff1681526020019081526020016000208190555081600660008573ffffffffffffffffffffffffffffffffffffffff1673ffffffffffffffffffffffffffffffffffffffff16815260200190815260200160002054610cf7919061122a565b600660008573ffffffffffffffffffffffffffffffffffffffff1673ffffffffffffffffffffffffffffffffffffffff168152602001908152602001600020819055508273ffffffffffffffffffffffffffffffffffffffff163373ffffffffffffffffffffffffffffffffffffffff167fddf252ad1be2c89b69c2b068fc378daa952ba7f163c4a11628f55a4df523b3ef84604051610d9791906111fe565b60405180910390a36001905092915050565b6000600760008473ffffffffffffffffffffffffffffffffffffffff1673ffffffffffffffffffffffffffffffffffffffff16815260200190815260200160002060008373ffffffffffffffffffffffffffffffffffffffff1673ffffffffffffffffffffffffffffffffffffffff16815260200190815260200160002054905092915050565b600081359050610e3f8161132b565b92915050565b600081359050610e5481611342565b92915050565b600060208284031215610e6c57600080fd5b6000610e7a84828501610e30565b91505092915050565b60008060408385031215610e9657600080fd5b6000610ea485828601610e30565b9250506020610eb585828601610e30565b9150509250929050565b600080600060608486031215610ed457600080fd5b6000610ee286828701610e30565b9350506020610ef386828701610e30565b9250506040610f0486828701610e45565b9150509250925092565b60008060408385031215610f2157600080fd5b6000610f2f85828601610e30565b9250506020610f4085828601610e45565b9150509250929050565b600060208284031215610f5c57600080fd5b6000610f6a84828501610e45565b91505092915050565b610f7c816112c6565b82525050565b6000610f8f602e83611219565b91507f416c6c6f77616e636520666f722064656c6567617465206f776e65722069732060008301527f6e6f742073756666696369656e740000000000000000000000000000000000006020830152604082019050919050565b6000610ff5600c83611219565b91507f506c6561736520776169742e00000000000000000000000000000000000000006000830152602082019050919050565b6000611035602283611219565b91507f6163636f756e742073686f756c64206e6f74206265207a656f7220616464726560008301527f73730000000000000000000000000000000000000000000000000000000000006020830152604082019050919050565b600061109b601d83611219565b91507f696e73756666696369656e742062616c616e6365206f66206f776e65720000006000830152602082019050919050565b60006110db602883611219565b91507f796f7520646f6e2774206861766520656e6f75676820746f6b656e7320746f2060008301527f7472616e736665720000000000000000000000000000000000000000000000006020830152604082019050919050565b61113d816112f2565b82525050565b60006020820190506111586000830184610f73565b92915050565b6000602082019050818103600083015261117781610f82565b9050919050565b6000602082019050818103600083015261119781610fe8565b9050919050565b600060208201905081810360008301526111b781611028565b9050919050565b600060208201905081810360008301526111d78161108e565b9050919050565b600060208201905081810360008301526111f7816110ce565b9050919050565b60006020820190506112136000830184611134565b92915050565b600082825260208201905092915050565b6000611235826112f2565b9150611240836112f2565b9250827fffffffffffffffffffffffffffffffffffffffffffffffffffffffffffffffff03821115611275576112746112fc565b5b828201905092915050565b600061128b826112f2565b9150611296836112f2565b9250828210156112a9576112a86112fc565b5b828203905092915050565b60006112bf826112d2565b9050919050565b60008115159050919050565b600073ffffffffffffffffffffffffffffffffffffffff82169050919050565b6000819050919050565b7f4e487b7100000000000000000000000000000000000000000000000000000000600052601160045260246000fd5b611334816112b4565b811461133f57600080fd5b50565b61134b816112f2565b811461135657600080fd5b5056fea2646970667358221220958de916001b68a58b5365a28bb9682778c645481a3362091599da016ed5a32064736f6c63430008000033",
  "immutableReferences": {},
  "source": "// SPDX-License-Identifier: MIT\n\npragma solidity ^0.8.0;\n\ninterface IERC20\n{\n    function totalSupply() external view returns (uint256);\n    function balanceOf(address account) external view returns (uint256);\n    function transfer(address recipient, uint256 amount) external returns (bool);\n    function allowance(address owner, address spender) external view returns (uint256);\n    function approve(address spender, uint256 amount) external returns (bool);\n    function transferFrom(address sender,address recipient,uint256 amount) external returns (bool);\n    event Transfer(address indexed from, address indexed to, uint256 value);\n    event Approval(address indexed owner, address indexed spender, uint256 value);\n}\n\ncontract myTokenERC20 is IERC20\n{\n    uint _totalSupply;\n    uint _tokenCap;\n    uint8 _decimal;\n    string _tokenName;\n    string _tokenSymbol;\n    address _contractOwner;\n    mapping (address => uint) _balances; \n    mapping (address => mapping(address => uint256)) _allowances;\n    \n    \n    constructor(uint256 initialSupply,uint8 decimal, string memory tokenName, string memory tokenSymbol) \n    {\n   _totalSupply = initialSupply*10**decimal;\n   _tokenName = tokenName;\n   _tokenSymbol = tokenSymbol;\n   _contractOwner=msg.sender;\n   _balances[msg.sender] = _totalSupply;\n    _tokenCap=_totalSupply*2;\n    \n     }\n     \n    // modifier to check whether given address is _contractOwner or not?\n     modifier isOwner {\n        if(msg.sender == _contractOwner) {\n        _;\n        }\n    }\n    \n    function totalSupply() override external view returns (uint)\n    {\n        return _totalSupply;\n    }\n    \n    function balanceOf(address tokenOwner) override external view returns (uint) {\n    return _balances[tokenOwner];\n     }\n     \n      function transfer(address receiver,uint numTokens) override external returns(bool)\n      {\n      require(numTokens <= _balances[msg.sender],\"you don't have enough tokens to transfer\");\n     _balances[msg.sender] = _balances[msg.sender] - numTokens; // 100 -12 =88\n     _balances[receiver] = _balances[receiver] + numTokens;   //0 + 12= 12\n      emit Transfer(msg.sender, receiver, numTokens);\n       return true;\n      }\n      \n      function allowance(address owner,address delegate) override public view returns (uint) {\n       return _allowances[owner][delegate];\n        }\n      \n      function approve(address delegate,uint numTokens) override external returns (bool) {\n     _allowances[msg.sender][delegate] = numTokens;\n     emit Approval(msg.sender, delegate, numTokens);\n      return true;\n       }\n       \n       function transferFrom(address owner, address buyer,uint numTokens) override public returns (bool) {\n       require(numTokens <= _balances[owner],\"insufficient balance of owner\");\n       require(numTokens <= _allowances[owner][msg.sender],\"Allowance for delegate owner is not sufficient\"); \n       require(buyer != address(0),\"account should not be zeor address\");\n       _balances[owner] = _balances[owner] - numTokens;\n       _allowances[owner][msg.sender] = _allowances[owner][msg.sender] - numTokens;\n       _balances[buyer] = _balances[buyer] + numTokens;\n       emit Transfer(owner, buyer, numTokens);\n       return true;\n       }\n       \n       // 3B 1) Capped Token: The minting token should not be exceeded from the Capped limit\n    \n    function mint(uint numTokens) public isOwner returns(bool a){\n    \n      require(msg.sender!=address(0));\n      require(_totalSupply+numTokens<=_tokenCap); \n      _totalSupply=_totalSupply+numTokens;\n      _balances[msg.sender]=_balances[msg.sender]+numTokens;\n      emit Transfer(address(0),msg.sender,numTokens);\n      return (true);\n       }\n       \n       \n       \n       // 3B 2) - TimeBound Token: The token will not be transferred until the given time exceed. \n       //Lock the transfer of token to a particular address, until certain conditions of Time are met. \n       //For example Wages payment will be due after 30 days.\n       \n       uint duration = 2 minutes;\n       uint releaseTime=block.timestamp+duration;\n       function transferTimeBoundToken(address receiver,uint numTokens) external returns(bool)\n      {\n      require(block.timestamp >= releaseTime, \"Please wait.\"); \n      require(numTokens <= _balances[msg.sender],\"you don't have enough tokens to transfer\");\n     _balances[msg.sender] = _balances[msg.sender] - numTokens; // 100 -12 =88\n     _balances[receiver] = _balances[receiver] + numTokens;   //0 + 12= 12\n      emit Transfer(msg.sender, receiver, numTokens);\n       return true;\n      }\n       \n       \n       \n}",
  "sourcePath": "D:\\3B\\contracts\\myTokenERC20.sol",
  "compiler": {
    "name": "solc",
    "version": "0.8.0+commit.c7dfd78e.Emscripten.clang"
  },
  "schemaVersion": "3.4.3",
  "updatedAt": "2021-09-14T19:09:36.386Z",
  "networkType": "ethereum",
  "devdoc": {
    "kind": "dev",
    "methods": {},
    "version": 1
  },
  "userdoc": {
    "kind": "user",
    "methods": {},
    "version": 1
  }
}